{
  "address": "0x423d3407F8eC686B8bB0eD3c1bb18198a0c306fC",
  "abi": [
    {
      "inputs": [
        {
          "internalType": "address",
          "name": "priceFeedAddress",
          "type": "address"
        }
      ],
      "stateMutability": "nonpayable",
      "type": "constructor"
    },
    {
      "inputs": [],
      "name": "NotOwner",
      "type": "error"
    },
    {
      "stateMutability": "payable",
      "type": "fallback"
    },
    {
      "inputs": [],
      "name": "MIN_USD",
      "outputs": [
        {
          "internalType": "uint256",
          "name": "",
          "type": "uint256"
        }
      ],
      "stateMutability": "view",
      "type": "function"
    },
    {
      "inputs": [
        {
          "internalType": "address",
          "name": "",
          "type": "address"
        }
      ],
      "name": "addressToAmountFunded",
      "outputs": [
        {
          "internalType": "uint256",
          "name": "",
          "type": "uint256"
        }
      ],
      "stateMutability": "view",
      "type": "function"
    },
    {
      "inputs": [],
      "name": "fund",
      "outputs": [],
      "stateMutability": "payable",
      "type": "function"
    },
    {
      "inputs": [
        {
          "internalType": "uint256",
          "name": "",
          "type": "uint256"
        }
      ],
      "name": "funders",
      "outputs": [
        {
          "internalType": "address",
          "name": "",
          "type": "address"
        }
      ],
      "stateMutability": "view",
      "type": "function"
    },
    {
      "inputs": [],
      "name": "i_owner",
      "outputs": [
        {
          "internalType": "address",
          "name": "",
          "type": "address"
        }
      ],
      "stateMutability": "view",
      "type": "function"
    },
    {
      "inputs": [],
      "name": "priceFeed",
      "outputs": [
        {
          "internalType": "contract AggregatorV3Interface",
          "name": "",
          "type": "address"
        }
      ],
      "stateMutability": "view",
      "type": "function"
    },
    {
      "inputs": [],
      "name": "withdraw",
      "outputs": [],
      "stateMutability": "nonpayable",
      "type": "function"
    },
    {
      "stateMutability": "payable",
      "type": "receive"
    }
  ],
  "transactionHash": "0x9caeceabb03d4351cdd5fbe16b6356881aa5a7ca851b002ff251c583a4437b16",
  "args": [
    "0x8A753747A1Fa494EC906cE90E9f37563A8AF630e"
  ],
  "numDeployments": 1,
  "solcInputHash": "c79bd1dae42f75f80db01ec260432917",
  "bytecode": "0x60a06040523480156200001157600080fd5b50604051620010b1380380620010b183398181016040528101906200003791906200011d565b3373ffffffffffffffffffffffffffffffffffffffff1660808173ffffffffffffffffffffffffffffffffffffffff168152505080600260006101000a81548173ffffffffffffffffffffffffffffffffffffffff021916908373ffffffffffffffffffffffffffffffffffffffff160217905550506200014f565b600080fd5b600073ffffffffffffffffffffffffffffffffffffffff82169050919050565b6000620000e582620000b8565b9050919050565b620000f781620000d8565b81146200010357600080fd5b50565b6000815190506200011781620000ec565b92915050565b600060208284031215620001365762000135620000b3565b5b6000620001468482850162000106565b91505092915050565b608051610f3862000179600039600081816102e10152818161036f01526105ed0152610f386000f3fe6080604052600436106100745760003560e01c8063741bef1a1161004e578063741bef1a1461010c578063b60d428814610137578063dba6335f14610141578063dc0d3dff1461016c57610083565b8063213dbea21461008d5780633ccfd60b146100b85780633e47d6f3146100cf57610083565b36610083576100816101a9565b005b61008b6101a9565b005b34801561009957600080fd5b506100a26102d2565b6040516100af91906107ea565b60405180910390f35b3480156100c457600080fd5b506100cd6102df565b005b3480156100db57600080fd5b506100f660048036038101906100f19190610868565b6105ad565b60405161010391906107ea565b60405180910390f35b34801561011857600080fd5b506101216105c5565b60405161012e91906108f4565b60405180910390f35b61013f6101a9565b005b34801561014d57600080fd5b506101566105eb565b604051610163919061091e565b60405180910390f35b34801561017857600080fd5b50610193600480360381019061018e9190610965565b61060f565b6040516101a0919061091e565b60405180910390f35b6802b5e3af16b18800006101e8600260009054906101000a900473ffffffffffffffffffffffffffffffffffffffff163461064e90919063ffffffff16565b1015610229576040517f08c379a000000000000000000000000000000000000000000000000000000000815260040161022090610a15565b60405180910390fd5b6000339080600181540180825580915050600190039060005260206000200160009091909190916101000a81548173ffffffffffffffffffffffffffffffffffffffff021916908373ffffffffffffffffffffffffffffffffffffffff16021790555034600160003373ffffffffffffffffffffffffffffffffffffffff1673ffffffffffffffffffffffffffffffffffffffff16815260200190815260200160002081905550565b6802b5e3af16b188000081565b7f000000000000000000000000000000000000000000000000000000000000000073ffffffffffffffffffffffffffffffffffffffff163373ffffffffffffffffffffffffffffffffffffffff161461036d576040517f08c379a000000000000000000000000000000000000000000000000000000000815260040161036490610a81565b60405180910390fd5b7f000000000000000000000000000000000000000000000000000000000000000073ffffffffffffffffffffffffffffffffffffffff163373ffffffffffffffffffffffffffffffffffffffff16146103f2576040517f30cd747100000000000000000000000000000000000000000000000000000000815260040160405180910390fd5b60005b60008054905081101561049d57600080828154811061041757610416610aa1565b5b9060005260206000200160009054906101000a900473ffffffffffffffffffffffffffffffffffffffff1690506000600160008373ffffffffffffffffffffffffffffffffffffffff1673ffffffffffffffffffffffffffffffffffffffff1681526020019081526020016000208190555050808061049590610aff565b9150506103f5565b50600067ffffffffffffffff8111156104b9576104b8610b48565b5b6040519080825280602002602001820160405280156104e75781602001602082028036833780820191505090505b50600090805190602001906104fd92919061072a565b5060003373ffffffffffffffffffffffffffffffffffffffff164760405161052490610ba8565b60006040518083038185875af1925050503d8060008114610561576040519150601f19603f3d011682016040523d82523d6000602084013e610566565b606091505b50509050806105aa576040517f08c379a00000000000000000000000000000000000000000000000000000000081526004016105a190610c09565b60405180910390fd5b50565b60016020528060005260406000206000915090505481565b600260009054906101000a900473ffffffffffffffffffffffffffffffffffffffff1681565b7f000000000000000000000000000000000000000000000000000000000000000081565b6000818154811061061f57600080fd5b906000526020600020016000915054906101000a900473ffffffffffffffffffffffffffffffffffffffff1681565b60008061065a8361068a565b90506000670de0b6b3a764000085836106739190610c29565b61067d9190610cb2565b9050809250505092915050565b6000808273ffffffffffffffffffffffffffffffffffffffff1663feaf968c6040518163ffffffff1660e01b815260040160a06040518083038186803b1580156106d357600080fd5b505afa1580156106e7573d6000803e3d6000fd5b505050506040513d601f19601f8201168201806040525081019061070b9190610d70565b5050509150506402540be400816107229190610deb565b915050919050565b8280548282559060005260206000209081019282156107a3579160200282015b828111156107a25782518260006101000a81548173ffffffffffffffffffffffffffffffffffffffff021916908373ffffffffffffffffffffffffffffffffffffffff1602179055509160200191906001019061074a565b5b5090506107b091906107b4565b5090565b5b808211156107cd5760008160009055506001016107b5565b5090565b6000819050919050565b6107e4816107d1565b82525050565b60006020820190506107ff60008301846107db565b92915050565b600080fd5b600073ffffffffffffffffffffffffffffffffffffffff82169050919050565b60006108358261080a565b9050919050565b6108458161082a565b811461085057600080fd5b50565b6000813590506108628161083c565b92915050565b60006020828403121561087e5761087d610805565b5b600061088c84828501610853565b91505092915050565b6000819050919050565b60006108ba6108b56108b08461080a565b610895565b61080a565b9050919050565b60006108cc8261089f565b9050919050565b60006108de826108c1565b9050919050565b6108ee816108d3565b82525050565b600060208201905061090960008301846108e5565b92915050565b6109188161082a565b82525050565b6000602082019050610933600083018461090f565b92915050565b610942816107d1565b811461094d57600080fd5b50565b60008135905061095f81610939565b92915050565b60006020828403121561097b5761097a610805565b5b600061098984828501610950565b91505092915050565b600082825260208201905092915050565b7f796f75206e65656420746f2073656e64206174206c65617374206f6e6520457460008201527f6865722100000000000000000000000000000000000000000000000000000000602082015250565b60006109ff602483610992565b9150610a0a826109a3565b604082019050919050565b60006020820190508181036000830152610a2e816109f2565b9050919050565b7f73656e646572206973206e6f7420616e206f776e657200000000000000000000600082015250565b6000610a6b601683610992565b9150610a7682610a35565b602082019050919050565b60006020820190508181036000830152610a9a81610a5e565b9050919050565b7f4e487b7100000000000000000000000000000000000000000000000000000000600052603260045260246000fd5b7f4e487b7100000000000000000000000000000000000000000000000000000000600052601160045260246000fd5b6000610b0a826107d1565b91507fffffffffffffffffffffffffffffffffffffffffffffffffffffffffffffffff821415610b3d57610b3c610ad0565b5b600182019050919050565b7f4e487b7100000000000000000000000000000000000000000000000000000000600052604160045260246000fd5b600081905092915050565b50565b6000610b92600083610b77565b9150610b9d82610b82565b600082019050919050565b6000610bb382610b85565b9150819050919050565b7f63616c6c206661696c6564000000000000000000000000000000000000000000600082015250565b6000610bf3600b83610992565b9150610bfe82610bbd565b602082019050919050565b60006020820190508181036000830152610c2281610be6565b9050919050565b6000610c34826107d1565b9150610c3f836107d1565b9250817fffffffffffffffffffffffffffffffffffffffffffffffffffffffffffffffff0483118215151615610c7857610c77610ad0565b5b828202905092915050565b7f4e487b7100000000000000000000000000000000000000000000000000000000600052601260045260246000fd5b6000610cbd826107d1565b9150610cc8836107d1565b925082610cd857610cd7610c83565b5b828204905092915050565b600069ffffffffffffffffffff82169050919050565b610d0281610ce3565b8114610d0d57600080fd5b50565b600081519050610d1f81610cf9565b92915050565b6000819050919050565b610d3881610d25565b8114610d4357600080fd5b50565b600081519050610d5581610d2f565b92915050565b600081519050610d6a81610939565b92915050565b600080600080600060a08688031215610d8c57610d8b610805565b5b6000610d9a88828901610d10565b9550506020610dab88828901610d46565b9450506040610dbc88828901610d5b565b9350506060610dcd88828901610d5b565b9250506080610dde88828901610d10565b9150509295509295909350565b6000610df682610d25565b9150610e0183610d25565b9250827f7fffffffffffffffffffffffffffffffffffffffffffffffffffffffffffffff0482116000841360008413161615610e4057610e3f610ad0565b5b817f80000000000000000000000000000000000000000000000000000000000000000583126000841260008413161615610e7d57610e7c610ad0565b5b827f80000000000000000000000000000000000000000000000000000000000000000582126000841360008412161615610eba57610eb9610ad0565b5b827f7fffffffffffffffffffffffffffffffffffffffffffffffffffffffffffffff0582126000841260008412161615610ef757610ef6610ad0565b5b82820290509291505056fea26469706673582212209a07f9bb624cec5ddf536b8ba593b7fc98f56c1096b609cb8fc4702bc4d66d4564736f6c63430008090033",
  "devdoc": {
    "kind": "dev",
    "methods": {},
    "version": 1
  },
  "userdoc": {
    "kind": "user",
    "methods": {},
    "version": 1
  },
  "storageLayout": {
    "storage": [
      {
        "astId": 62,
        "contract": "contracts/fundMe.sol:FundMe",
        "label": "funders",
        "offset": 0,
        "slot": "0",
        "type": "t_array(t_address)dyn_storage"
      },
      {
        "astId": 66,
        "contract": "contracts/fundMe.sol:FundMe",
        "label": "addressToAmountFunded",
        "offset": 0,
        "slot": "1",
        "type": "t_mapping(t_address,t_uint256)"
      },
      {
        "astId": 71,
        "contract": "contracts/fundMe.sol:FundMe",
        "label": "priceFeed",
        "offset": 0,
        "slot": "2",
        "type": "t_contract(AggregatorV3Interface)45"
      }
    ],
    "types": {
      "t_address": {
        "encoding": "inplace",
        "label": "address",
        "numberOfBytes": "20"
      },
      "t_array(t_address)dyn_storage": {
        "base": "t_address",
        "encoding": "dynamic_array",
        "label": "address[]",
        "numberOfBytes": "32"
      },
      "t_contract(AggregatorV3Interface)45": {
        "encoding": "inplace",
        "label": "contract AggregatorV3Interface",
        "numberOfBytes": "20"
      },
      "t_mapping(t_address,t_uint256)": {
        "encoding": "mapping",
        "key": "t_address",
        "label": "mapping(address => uint256)",
        "numberOfBytes": "32",
        "value": "t_uint256"
      },
      "t_uint256": {
        "encoding": "inplace",
        "label": "uint256",
        "numberOfBytes": "32"
      }
    }
  }
}